{"abi":[{"type":"constructor","inputs":[{"name":"params_","type":"tuple","internalType":"struct IArrakisHookV1.InitializeParams","components":[{"name":"poolManager","type":"address","internalType":"contract IPoolManager"},{"name":"name","type":"string","internalType":"string"},{"name":"symbol","type":"string","internalType":"string"},{"name":"rangeSize","type":"uint24","internalType":"uint24"},{"name":"lowerTick","type":"int24","internalType":"int24"},{"name":"upperTick","type":"int24","internalType":"int24"},{"name":"referenceFee","type":"uint16","internalType":"uint16"},{"name":"referenceVolatility","type":"uint16","internalType":"uint16"},{"name":"ultimateThreshold","type":"uint16","internalType":"uint16"},{"name":"allocation","type":"uint16","internalType":"uint16"},{"name":"c","type":"uint16","internalType":"uint16"}]}],"stateMutability":"nonpayable"},{"type":"function","name":"a0","inputs":[],"outputs":[{"name":"","type":"uint256","internalType":"uint256"}],"stateMutability":"view"},{"type":"function","name":"a1","inputs":[],"outputs":[{"name":"","type":"uint256","internalType":"uint256"}],"stateMutability":"view"},{"type":"function","name":"afterDonate","inputs":[{"name":"","type":"address","internalType":"address"},{"name":"","type":"tuple","internalType":"struct IPoolManager.PoolKey","components":[{"name":"currency0","type":"address","internalType":"Currency"},{"name":"currency1","type":"address","internalType":"Currency"},{"name":"fee","type":"uint24","internalType":"uint24"},{"name":"tickSpacing","type":"int24","internalType":"int24"},{"name":"hooks","type":"address","internalType":"contract IHooks"}]},{"name":"","type":"uint256","internalType":"uint256"},{"name":"","type":"uint256","internalType":"uint256"}],"outputs":[{"name":"","type":"bytes4","internalType":"bytes4"}],"stateMutability":"nonpayable"},{"type":"function","name":"afterInitialize","inputs":[{"name":"","type":"address","internalType":"address"},{"name":"","type":"tuple","internalType":"struct IPoolManager.PoolKey","components":[{"name":"currency0","type":"address","internalType":"Currency"},{"name":"currency1","type":"address","internalType":"Currency"},{"name":"fee","type":"uint24","internalType":"uint24"},{"name":"tickSpacing","type":"int24","internalType":"int24"},{"name":"hooks","type":"address","internalType":"contract IHooks"}]},{"name":"","type":"uint160","internalType":"uint160"},{"name":"","type":"int24","internalType":"int24"}],"outputs":[{"name":"","type":"bytes4","internalType":"bytes4"}],"stateMutability":"nonpayable"},{"type":"function","name":"afterModifyPosition","inputs":[{"name":"","type":"address","internalType":"address"},{"name":"","type":"tuple","internalType":"struct IPoolManager.PoolKey","components":[{"name":"currency0","type":"address","internalType":"Currency"},{"name":"currency1","type":"address","internalType":"Currency"},{"name":"fee","type":"uint24","internalType":"uint24"},{"name":"tickSpacing","type":"int24","internalType":"int24"},{"name":"hooks","type":"address","internalType":"contract IHooks"}]},{"name":"","type":"tuple","internalType":"struct IPoolManager.ModifyPositionParams","components":[{"name":"tickLower","type":"int24","internalType":"int24"},{"name":"tickUpper","type":"int24","internalType":"int24"},{"name":"liquidityDelta","type":"int256","internalType":"int256"}]},{"name":"","type":"int256","internalType":"BalanceDelta"}],"outputs":[{"name":"","type":"bytes4","internalType":"bytes4"}],"stateMutability":"nonpayable"},{"type":"function","name":"afterSwap","inputs":[{"name":"","type":"address","internalType":"address"},{"name":"","type":"tuple","internalType":"struct IPoolManager.PoolKey","components":[{"name":"currency0","type":"address","internalType":"Currency"},{"name":"currency1","type":"address","internalType":"Currency"},{"name":"fee","type":"uint24","internalType":"uint24"},{"name":"tickSpacing","type":"int24","internalType":"int24"},{"name":"hooks","type":"address","internalType":"contract IHooks"}]},{"name":"","type":"tuple","internalType":"struct IPoolManager.SwapParams","components":[{"name":"zeroForOne","type":"bool","internalType":"bool"},{"name":"amountSpecified","type":"int256","internalType":"int256"},{"name":"sqrtPriceLimitX96","type":"uint160","internalType":"uint160"}]},{"name":"","type":"int256","internalType":"BalanceDelta"}],"outputs":[{"name":"","type":"bytes4","internalType":"bytes4"}],"stateMutability":"nonpayable"},{"type":"function","name":"allocation","inputs":[],"outputs":[{"name":"","type":"uint16","internalType":"uint16"}],"stateMutability":"view"},{"type":"function","name":"allowance","inputs":[{"name":"owner","type":"address","internalType":"address"},{"name":"spender","type":"address","internalType":"address"}],"outputs":[{"name":"","type":"uint256","internalType":"uint256"}],"stateMutability":"view"},{"type":"function","name":"approve","inputs":[{"name":"spender","type":"address","internalType":"address"},{"name":"amount","type":"uint256","internalType":"uint256"}],"outputs":[{"name":"","type":"bool","internalType":"bool"}],"stateMutability":"nonpayable"},{"type":"function","name":"balanceOf","inputs":[{"name":"account","type":"address","internalType":"address"}],"outputs":[{"name":"","type":"uint256","internalType":"uint256"}],"stateMutability":"view"},{"type":"function","name":"beforeDonate","inputs":[{"name":"","type":"address","internalType":"address"},{"name":"","type":"tuple","internalType":"struct IPoolManager.PoolKey","components":[{"name":"currency0","type":"address","internalType":"Currency"},{"name":"currency1","type":"address","internalType":"Currency"},{"name":"fee","type":"uint24","internalType":"uint24"},{"name":"tickSpacing","type":"int24","internalType":"int24"},{"name":"hooks","type":"address","internalType":"contract IHooks"}]},{"name":"","type":"uint256","internalType":"uint256"},{"name":"","type":"uint256","internalType":"uint256"}],"outputs":[{"name":"","type":"bytes4","internalType":"bytes4"}],"stateMutability":"nonpayable"},{"type":"function","name":"beforeInitialize","inputs":[{"name":"","type":"address","internalType":"address"},{"name":"poolKey_","type":"tuple","internalType":"struct IPoolManager.PoolKey","components":[{"name":"currency0","type":"address","internalType":"Currency"},{"name":"currency1","type":"address","internalType":"Currency"},{"name":"fee","type":"uint24","internalType":"uint24"},{"name":"tickSpacing","type":"int24","internalType":"int24"},{"name":"hooks","type":"address","internalType":"contract IHooks"}]},{"name":"sqrtPriceX96_","type":"uint160","internalType":"uint160"}],"outputs":[{"name":"","type":"bytes4","internalType":"bytes4"}],"stateMutability":"nonpayable"},{"type":"function","name":"beforeModifyPosition","inputs":[{"name":"","type":"address","internalType":"address"},{"name":"","type":"tuple","internalType":"struct IPoolManager.PoolKey","components":[{"name":"currency0","type":"address","internalType":"Currency"},{"name":"currency1","type":"address","internalType":"Currency"},{"name":"fee","type":"uint24","internalType":"uint24"},{"name":"tickSpacing","type":"int24","internalType":"int24"},{"name":"hooks","type":"address","internalType":"contract IHooks"}]},{"name":"","type":"tuple","internalType":"struct IPoolManager.ModifyPositionParams","components":[{"name":"tickLower","type":"int24","internalType":"int24"},{"name":"tickUpper","type":"int24","internalType":"int24"},{"name":"liquidityDelta","type":"int256","internalType":"int256"}]}],"outputs":[{"name":"","type":"bytes4","internalType":"bytes4"}],"stateMutability":"nonpayable"},{"type":"function","name":"beforeSwap","inputs":[{"name":"","type":"address","internalType":"address"},{"name":"poolKey_","type":"tuple","internalType":"struct IPoolManager.PoolKey","components":[{"name":"currency0","type":"address","internalType":"Currency"},{"name":"currency1","type":"address","internalType":"Currency"},{"name":"fee","type":"uint24","internalType":"uint24"},{"name":"tickSpacing","type":"int24","internalType":"int24"},{"name":"hooks","type":"address","internalType":"contract IHooks"}]},{"name":"swapParams_","type":"tuple","internalType":"struct IPoolManager.SwapParams","components":[{"name":"zeroForOne","type":"bool","internalType":"bool"},{"name":"amountSpecified","type":"int256","internalType":"int256"},{"name":"sqrtPriceLimitX96","type":"uint160","internalType":"uint160"}]}],"outputs":[{"name":"","type":"bytes4","internalType":"bytes4"}],"stateMutability":"nonpayable"},{"type":"function","name":"burn","inputs":[{"name":"burnAmount_","type":"uint256","internalType":"uint256"},{"name":"receiver_","type":"address","internalType":"address"}],"outputs":[{"name":"amount0","type":"uint256","internalType":"uint256"},{"name":"amount1","type":"uint256","internalType":"uint256"}],"stateMutability":"nonpayable"},{"type":"function","name":"c","inputs":[],"outputs":[{"name":"","type":"uint16","internalType":"uint16"}],"stateMutability":"view"},{"type":"function","name":"decimals","inputs":[],"outputs":[{"name":"","type":"uint8","internalType":"uint8"}],"stateMutability":"view"},{"type":"function","name":"decreaseAllowance","inputs":[{"name":"spender","type":"address","internalType":"address"},{"name":"subtractedValue","type":"uint256","internalType":"uint256"}],"outputs":[{"name":"","type":"bool","internalType":"bool"}],"stateMutability":"nonpayable"},{"type":"function","name":"delta","inputs":[],"outputs":[{"name":"","type":"uint16","internalType":"uint16"}],"stateMutability":"view"},{"type":"function","name":"getFee","inputs":[{"name":"","type":"tuple","internalType":"struct IPoolManager.PoolKey","components":[{"name":"currency0","type":"address","internalType":"Currency"},{"name":"currency1","type":"address","internalType":"Currency"},{"name":"fee","type":"uint24","internalType":"uint24"},{"name":"tickSpacing","type":"int24","internalType":"int24"},{"name":"hooks","type":"address","internalType":"contract IHooks"}]}],"outputs":[{"name":"","type":"uint24","internalType":"uint24"}],"stateMutability":"view"},{"type":"function","name":"getHooksCalls","inputs":[],"outputs":[{"name":"","type":"tuple","internalType":"struct Hooks.Calls","components":[{"name":"beforeInitialize","type":"bool","internalType":"bool"},{"name":"afterInitialize","type":"bool","internalType":"bool"},{"name":"beforeModifyPosition","type":"bool","internalType":"bool"},{"name":"afterModifyPosition","type":"bool","internalType":"bool"},{"name":"beforeSwap","type":"bool","internalType":"bool"},{"name":"afterSwap","type":"bool","internalType":"bool"},{"name":"beforeDonate","type":"bool","internalType":"bool"},{"name":"afterDonate","type":"bool","internalType":"bool"}]}],"stateMutability":"pure"},{"type":"function","name":"impactDirection","inputs":[],"outputs":[{"name":"","type":"bool","internalType":"bool"}],"stateMutability":"view"},{"type":"function","name":"increaseAllowance","inputs":[{"name":"spender","type":"address","internalType":"address"},{"name":"addedValue","type":"uint256","internalType":"uint256"}],"outputs":[{"name":"","type":"bool","internalType":"bool"}],"stateMutability":"nonpayable"},{"type":"function","name":"lastBlockNumber","inputs":[],"outputs":[{"name":"","type":"uint256","internalType":"uint256"}],"stateMutability":"view"},{"type":"function","name":"lastSqrtPriceX96","inputs":[],"outputs":[{"name":"","type":"uint160","internalType":"uint160"}],"stateMutability":"view"},{"type":"function","name":"lockAcquired","inputs":[{"name":"","type":"uint256","internalType":"uint256"},{"name":"data_","type":"bytes","internalType":"bytes"}],"outputs":[{"name":"","type":"bytes","internalType":"bytes"}],"stateMutability":"nonpayable"},{"type":"function","name":"lowerTick","inputs":[],"outputs":[{"name":"","type":"int24","internalType":"int24"}],"stateMutability":"view"},{"type":"function","name":"mint","inputs":[{"name":"mintAmount_","type":"uint256","internalType":"uint256"},{"name":"receiver_","type":"address","internalType":"address"}],"outputs":[{"name":"amount0","type":"uint256","internalType":"uint256"},{"name":"amount1","type":"uint256","internalType":"uint256"}],"stateMutability":"nonpayable"},{"type":"function","name":"name","inputs":[],"outputs":[{"name":"","type":"string","internalType":"string"}],"stateMutability":"view"},{"type":"function","name":"poolKey","inputs":[],"outputs":[{"name":"currency0","type":"address","internalType":"Currency"},{"name":"currency1","type":"address","internalType":"Currency"},{"name":"fee","type":"uint24","internalType":"uint24"},{"name":"tickSpacing","type":"int24","internalType":"int24"},{"name":"hooks","type":"address","internalType":"contract IHooks"}],"stateMutability":"view"},{"type":"function","name":"poolManager","inputs":[],"outputs":[{"name":"","type":"address","internalType":"contract IPoolManager"}],"stateMutability":"view"},{"type":"function","name":"rangeSize","inputs":[],"outputs":[{"name":"","type":"uint24","internalType":"uint24"}],"stateMutability":"view"},{"type":"function","name":"referenceFee","inputs":[],"outputs":[{"name":"","type":"uint16","internalType":"uint16"}],"stateMutability":"view"},{"type":"function","name":"referenceVolatility","inputs":[],"outputs":[{"name":"","type":"uint16","internalType":"uint16"}],"stateMutability":"view"},{"type":"function","name":"symbol","inputs":[],"outputs":[{"name":"","type":"string","internalType":"string"}],"stateMutability":"view"},{"type":"function","name":"totalSupply","inputs":[],"outputs":[{"name":"","type":"uint256","internalType":"uint256"}],"stateMutability":"view"},{"type":"function","name":"transfer","inputs":[{"name":"to","type":"address","internalType":"address"},{"name":"amount","type":"uint256","internalType":"uint256"}],"outputs":[{"name":"","type":"bool","internalType":"bool"}],"stateMutability":"nonpayable"},{"type":"function","name":"transferFrom","inputs":[{"name":"from","type":"address","internalType":"address"},{"name":"to","type":"address","internalType":"address"},{"name":"amount","type":"uint256","internalType":"uint256"}],"outputs":[{"name":"","type":"bool","internalType":"bool"}],"stateMutability":"nonpayable"},{"type":"function","name":"ultimateThreshold","inputs":[],"outputs":[{"name":"","type":"uint16","internalType":"uint16"}],"stateMutability":"view"},{"type":"function","name":"upperTick","inputs":[],"outputs":[{"name":"","type":"int24","internalType":"int24"}],"stateMutability":"view"},{"type":"function","name":"zeroForOne","inputs":[],"outputs":[{"name":"","type":"bool","internalType":"bool"}],"stateMutability":"view"},{"type":"event","name":"Approval","inputs":[{"name":"owner","type":"address","indexed":true,"internalType":"address"},{"name":"spender","type":"address","indexed":true,"internalType":"address"},{"name":"value","type":"uint256","indexed":false,"internalType":"uint256"}],"anonymous":false},{"type":"event","name":"LogBurn","inputs":[{"name":"receiver","type":"address","indexed":true,"internalType":"address"},{"name":"burnAmount","type":"uint256","indexed":false,"internalType":"uint256"},{"name":"amount0Out","type":"uint256","indexed":false,"internalType":"uint256"},{"name":"amount1Out","type":"uint256","indexed":false,"internalType":"uint256"}],"anonymous":false},{"type":"event","name":"LogCollectedFees","inputs":[{"name":"fee0","type":"uint256","indexed":false,"internalType":"uint256"},{"name":"fee1","type":"uint256","indexed":false,"internalType":"uint256"}],"anonymous":false},{"type":"event","name":"LogMint","inputs":[{"name":"receiver","type":"address","indexed":true,"internalType":"address"},{"name":"mintAmount","type":"uint256","indexed":false,"internalType":"uint256"},{"name":"amount0In","type":"uint256","indexed":false,"internalType":"uint256"},{"name":"amount1In","type":"uint256","indexed":false,"internalType":"uint256"}],"anonymous":false},{"type":"event","name":"Transfer","inputs":[{"name":"from","type":"address","indexed":true,"internalType":"address"},{"name":"to","type":"address","indexed":true,"internalType":"address"},{"name":"value","type":"uint256","indexed":false,"internalType":"uint256"}],"anonymous":false},{"type":"error","name":"HookAddressNotValid","inputs":[{"name":"hooks","type":"address","internalType":"address"}]},{"type":"error","name":"HookNotImplemented","inputs":[]},{"type":"error","name":"InvalidPool","inputs":[]},{"type":"error","name":"InvalidTick","inputs":[]},{"type":"error","name":"LockFailure","inputs":[]},{"type":"error","name":"NotPoolManager","inputs":[]},{"type":"error","name":"NotSelf","inputs":[]}],"bytecode":{"object":"0x60e06040523480156200001157600080fd5b50604051620058ed380380620058ed83398101604081905262000034916200042f565b6020810151604082015182516001600160a01b038116608052620000583062000147565b50600362000067838262000610565b50600462000076828262000610565b505060016005555060c08181015161ffff90811690915260e0820151600980546060850151608086015160a08088015164ffffffffff60a01b19909416600160a01b9688169690960262ffffff60b01b191695909517600160b01b62ffffff938416021765ffffffffffff60c81b1916600160c81b9183169190910262ffffff60e01b191617600160e01b9190921602179055610100830151600a805461012086015192851663ffffffff1990911617620100009285169290920291909117905561014090920151169052620006dc565b620001dc81620001d66040805161010081018252600080825260208201819052918101829052606081018290526080810182905260a0810182905260c0810182905260e0810191909152506040805161010081018252600180825260006020830181905292820183905260608201839052608082015260a0810182905260c0810182905260e081019190915290565b620001df565b50565b805115156001609f1b83161515141580620002085750602081015115156001609e1b8316151514155b80620002225750604081015115156001609d1b8316151514155b806200023c5750606081015115156001609c1b8316151514155b80620002565750608081015115156001609b1b8316151514155b8062000270575060a081015115156001609a1b8316151514155b806200028a575060c08101511515600160991b8316151514155b80620002a4575060e08101511515600160981b8316151514155b15620002d257604051630732d7b560e51b81526001600160a01b038316600482015260240160405180910390fd5b5050565b634e487b7160e01b600052604160045260246000fd5b60405161016081016001600160401b0381118282101715620003125762000312620002d6565b60405290565b604051601f8201601f191681016001600160401b0381118282101715620003435762000343620002d6565b604052919050565b80516001600160a01b03811681146200036357600080fd5b919050565b600082601f8301126200037a57600080fd5b81516001600160401b03811115620003965762000396620002d6565b6020620003ac601f8301601f1916820162000318565b8281528582848701011115620003c157600080fd5b60005b83811015620003e1578581018301518282018401528201620003c4565b506000928101909101919091529392505050565b805162ffffff811681146200036357600080fd5b8051600281900b81146200036357600080fd5b805161ffff811681146200036357600080fd5b6000602082840312156200044257600080fd5b81516001600160401b03808211156200045a57600080fd5b9083019061016082860312156200047057600080fd5b6200047a620002ec565b62000485836200034b565b81526020830151828111156200049a57600080fd5b620004a88782860162000368565b602083015250604083015182811115620004c157600080fd5b620004cf8782860162000368565b604083015250620004e360608401620003f5565b6060820152620004f66080840162000409565b60808201526200050960a0840162000409565b60a08201526200051c60c084016200041c565b60c08201526200052f60e084016200041c565b60e08201526101009150620005468284016200041c565b8282015261012091506200055c8284016200041c565b828201526101409150620005728284016200041c565b91810191909152949350505050565b600181811c908216806200059657607f821691505b602082108103620005b757634e487b7160e01b600052602260045260246000fd5b50919050565b601f8211156200060b57600081815260208120601f850160051c81016020861015620005e65750805b601f850160051c820191505b818110156200060757828155600101620005f2565b5050505b505050565b81516001600160401b038111156200062c576200062c620002d6565b62000644816200063d845462000581565b84620005bd565b602080601f8311600181146200067c5760008415620006635750858301515b600019600386901b1c1916600185901b17855562000607565b600085815260208120601f198616915b82811015620006ad578886015182559484019460019091019084016200068c565b5085821015620006cc5787850151600019600388901b60f8161c191681555b5050505050600190811b01905550565b60805160a05160c05161505962000894600039600081816105070152818161097a015281816109b501526109eb0152600081816106cf0152610d790152600081816106ff015281816108cc01528181610b1401528181610ca701528181610fd70152818161144401528181611543015281816115fc015281816116f6015281816117e30152818161182a015281816118bb01528181611902015281816119dc01528181611ade01528181611c2201528181611ccd01528181611d7c01528181611e2701528181611ea401528181611f5d015281816120570152818161216a015281816121b101528181612242015281816122890152818161232d01528181612422015281816125430152818161265b0152818161277e01528181612806015281816128af0152818161294301528181612a1a01528181612b1e01528181612c6201528181612d0d01528181612dbc01528181612e6701528181612ee801528181612fa1015281816130a3015281816131d50152818161327001528181613301015281816133f6015281816135170152818161362f0152818161377b0152818161380e015281816138af015261394301526150596000f3fe608060405234801561001057600080fd5b50600436106102d35760003560e01c806370a0823111610186578063a5aa370a116100e3578063c65f543211610097578063dd62ed3e11610071578063dd62ed3e14610734578063eb9c023a1461076d578063fcd3533c1461078057600080fd5b8063c65f5432146106f1578063dc4c90d3146106fa578063dc98354e1461072157600080fd5b8063b25b6bd7116100c8578063b25b6bd7146106a3578063b3f97f80146106b7578063c3da42b8146106ca57600080fd5b8063a5aa370a14610345578063a9059cbb1461069057600080fd5b80638fc4fd911161013a57806395d89b411161011f57806395d89b41146106615780639b1344ac14610669578063a457c2d71461067d57600080fd5b80638fc4fd911461060e57806394bf804d1461063957600080fd5b8063727dd2281161016b578063727dd228146105be5780637600f265146105e557806388a17bde146105fa57600080fd5b806370a08231146105875780637136ccef146105b057600080fd5b8063313ce56711610234578063612c39b7116101e85780636723f355116101cd5780636723f3551461052957806369516b74146105665780636fe7e6eb1461057957600080fd5b8063612c39b71461046c5780636333ff4e1461050257600080fd5b80633c74bf4c116102195780633c74bf4c1461044b57806343c4407e1461045e5780634dbb99a61461045e57600080fd5b8063313ce56714610429578063395093511461043857600080fd5b806312b495a81161028b578063182148ef11610270578063182148ef1461039357806323b872dd1461040d5780632552317c1461042057600080fd5b806312b495a81461036a57806318160ddd1461038b57600080fd5b80630dbe5dbd116102bc5780630dbe5dbd146103195780630e2059f514610345578063119552a11461035357600080fd5b806306fdde03146102d8578063095ea7b3146102f6575b600080fd5b6102e0610793565b6040516102ed9190614687565b60405180910390f35b6103096103043660046146b2565b610825565b60405190151581526020016102ed565b61032c610327366004614708565b61083f565b6040516001600160e01b031990911681526020016102ed565b61032c610327366004614750565b61035c600e5481565b6040519081526020016102ed565b600c546103789061ffff1681565b60405161ffff90911681526020016102ed565b60025461035c565b6006546007546008546103cd926001600160a01b03908116928082169262ffffff600160a01b83041692600160b81b90920460020b911685565b604080516001600160a01b039687168152948616602086015262ffffff9093169284019290925260020b606083015291909116608082015260a0016102ed565b61030961041b3660046147a1565b61085a565b61035c600b5481565b604051601281526020016102ed565b6103096104463660046146b2565b610880565b6102e06104593660046147e2565b6108bf565b61032c61032736600461485e565b6104f56040805161010081018252600080825260208201819052918101829052606081018290526080810182905260a0810182905260c0810182905260e0810191909152506040805161010081018252600180825260006020830181905292820183905260608201839052608082015260a0810182905260c0810182905260e081019190915290565b6040516102ed91906148a4565b6103787f000000000000000000000000000000000000000000000000000000000000000081565b60095461055290760100000000000000000000000000000000000000000000900462ffffff1681565b60405162ffffff90911681526020016102ed565b61055261057436600461492d565b61094d565b61032c610327366004614958565b61035c6105953660046149b4565b6001600160a01b031660009081526020819052604090205490565b600a546103789061ffff1681565b6009546105d290600160e01b900460020b81565b60405160029190910b81526020016102ed565b60095461037890600160a01b900461ffff1681565b600a546103789062010000900461ffff1681565b600954610621906001600160a01b031681565b6040516001600160a01b0390911681526020016102ed565b61064c6106473660046149d1565b610a19565b604080519283526020830191909152016102ed565b6102e0610bb7565b6009546105d290600160c81b900460020b81565b61030961068b3660046146b2565b610bc6565b61030961069e3660046146b2565b610c7b565b600c54610309906301000000900460ff1681565b61032c6106c5366004614708565b610c89565b6103787f000000000000000000000000000000000000000000000000000000000000000081565b61035c600d5481565b6106217f000000000000000000000000000000000000000000000000000000000000000081565b61032c61072f366004614a01565b610e54565b61035c610742366004614a4b565b6001600160a01b03918216600090815260016020908152604080832093909416825291909152205490565b600c546103099062010000900460ff1681565b61064c61078e3660046149d1565b610e96565b6060600380546107a290614a79565b80601f01602080910402602001604051908101604052809291908181526020018280546107ce90614a79565b801561081b5780601f106107f05761010080835404028352916020019161081b565b820191906000526020600020905b8154815290600101906020018083116107fe57829003601f168201915b5050505050905090565b60003361083381858561106a565b60019150505b92915050565b6000604051630a85dc2960e01b815260040160405180910390fd5b60003361086885828561118f565b610873858585611221565b60019150505b9392505050565b3360008181526001602090815260408083206001600160a01b038716845290915281205490919061083390829086906108ba908790614ac3565b61106a565b6060336001600160a01b037f0000000000000000000000000000000000000000000000000000000000000000161461090a5760405163570c108560e11b815260040160405180910390fd5b600061091883850185614b24565b805190915060ff1660000361093057610930816113f4565b805160ff1660010361094557610945816129b5565b509392505050565b600c5460009060ff630100000082048116151562010000909204161515036109de57600c5461ffff9081167f0000000000000000000000000000000000000000000000000000000000000000909116116109a8576000610a0f565b600c546109d99061ffff167f0000000000000000000000000000000000000000000000000000000000000000614b8e565b610a0f565b600c54610a0f9061ffff167f0000000000000000000000000000000000000000000000000000000000000000614ba9565b61ffff1692915050565b600080610a246139ab565b60008411610a795760405162461bcd60e51b815260206004820152600660248201527f6d696e742030000000000000000000000000000000000000000000000000000060448201526064015b60405180910390fd5b6040805160a08082018352600080835260208084018981528486018381526001600160a01b038a81166060808901918252336080998a019081528a519687018890529451998601999099529151978401979097525186169482019490945292519093169082015260c00160408051601f19818403018152908290526000600e819055600d55638154831960e01b825291506001600160a01b037f00000000000000000000000000000000000000000000000000000000000000001690638154831990610b49908490600401614687565b6000604051808303816000875af1158015610b68573d6000803e3d6000fd5b505050506040513d6000823e601f3d908101601f19168201604052610b909190810190614bc4565b50600d549250600e549150610ba58486613a04565b50610bb06001600555565b9250929050565b6060600480546107a290614a79565b3360008181526001602090815260408083206001600160a01b038716845290915281205490919083811015610c635760405162461bcd60e51b815260206004820152602560248201527f45524332303a2064656372656173656420616c6c6f77616e63652062656c6f7760448201527f207a65726f0000000000000000000000000000000000000000000000000000006064820152608401610a70565b610c70828686840361106a565b506001949350505050565b600033610833818585611221565b600b5460009043118015610e195743600b5560006001600160a01b037f00000000000000000000000000000000000000000000000000000000000000001663c815641c610ce3610cde36899003890189614c77565b613ac3565b6040518263ffffffff1660e01b8152600401610d0191815260200190565b60c060405180830381865afa158015610d1e573d6000803e3d6000fd5b505050506040513d601f19601f82011682018060405250810190610d429190614cd2565b505050505090506000610d5482613b39565b600954909150600090610d6f906001600160a01b0316613b39565b9050610df4610def7f000000000000000000000000000000000000000000000000000000000000000061ffff16838511610db257610dad8585614d59565b610dbc565b610dbc8486614d59565b610dc990620f4240614d6c565b600954610de1906001600160a01b0316612710614d83565b6001600160a01b0316613b4f565b613c01565b600c805461ffff9290921662ffffff1990921691909117919092116201000002179055505b610e266020840184614dc3565b600c805491151563010000000263ff0000001990921691909117905550630167f2ff60e71b90509392505050565b6000826006610e638282614de0565b5050600980546001600160a01b0384166001600160a01b03199091161790555043600b55636e4c1aa760e11b9392505050565b600080610ea16139ab565b60008411610ef15760405162461bcd60e51b815260206004820152600660248201527f6275726e203000000000000000000000000000000000000000000000000000006044820152606401610a70565b6000610efc60025490565b11610f495760405162461bcd60e51b815260206004820152601160248201527f746f74616c20737570706c7920697320300000000000000000000000000000006044820152606401610a70565b6040805160a080820183526001808352600060208085018281528587018b81526001600160a01b038b81166060808a019182523360809a8b019081528b51968701989098529351858b01529151928401929092525181169582019590955291518416828401528451808303909301835260c0820194859052600e819055600d55638154831960e01b909352917f00000000000000000000000000000000000000000000000000000000000000009091169063815483199061100e90849060c401614687565b6000604051808303816000875af115801561102d573d6000803e3d6000fd5b505050506040513d6000823e601f3d908101601f191682016040526110559190810190614bc4565b50600d549250600e549150610ba53386613c7f565b6001600160a01b0383166110cc5760405162461bcd60e51b8152602060048201526024808201527f45524332303a20617070726f76652066726f6d20746865207a65726f206164646044820152637265737360e01b6064820152608401610a70565b6001600160a01b03821661112d5760405162461bcd60e51b815260206004820152602260248201527f45524332303a20617070726f766520746f20746865207a65726f206164647265604482015261737360f01b6064820152608401610a70565b6001600160a01b0383811660008181526001602090815260408083209487168084529482529182902085905590518481527f8c5be1e5ebec7d5bd14f71427d1e84f3dd0314c0f7b2291e5b200ac8c7c3b92591015b60405180910390a3505050565b6001600160a01b03838116600090815260016020908152604080832093861683529290522054600019811461121b578181101561120e5760405162461bcd60e51b815260206004820152601d60248201527f45524332303a20696e73756666696369656e7420616c6c6f77616e63650000006044820152606401610a70565b61121b848484840361106a565b50505050565b6001600160a01b03831661129d5760405162461bcd60e51b815260206004820152602560248201527f45524332303a207472616e736665722066726f6d20746865207a65726f20616460448201527f64726573730000000000000000000000000000000000000000000000000000006064820152608401610a70565b6001600160a01b0382166112ff5760405162461bcd60e51b815260206004820152602360248201527f45524332303a207472616e7366657220746f20746865207a65726f206164647260448201526265737360e81b6064820152608401610a70565b6001600160a01b0383166000908152602081905260409020548181101561138e5760405162461bcd60e51b815260206004820152602660248201527f45524332303a207472616e7366657220616d6f756e742065786365656473206260448201527f616c616e636500000000000000000000000000000000000000000000000000006064820152608401610a70565b6001600160a01b03848116600081815260208181526040808320878703905593871680835291849020805487019055925185815290927fddf252ad1be2c89b69c2b068fc378daa952ba7f163c4a11628f55a4df523b3ef910160405180910390a361121b565b60006113ff60025490565b9050806000036119855760408051606081018252600954600160c81b8104600290810b8352600160e01b909104900b6020808301919091528401516001600160a01b037f0000000000000000000000000000000000000000000000000000000000000000169263555a473392600692909182019061147c90613dae565b9052604080516001600160e01b031960e086901b16815283546001600160a01b0390811660048301526001850154808216602484015260a081901c62ffffff16604484015260b81c600290810b6064840152948501541660848201528251840b60a4820152602083015190930b60c4840152015160e4820152610104016020604051808303816000875af1158015611518573d6000803e3d6000fd5b505050506040513d601f19601f8201168201806040525081019061153c9190614ee7565b50600060017f00000000000000000000000000000000000000000000000000000000000000006001600160a01b0316634fb28fbf6040518163ffffffff1660e01b8152600401602060405180830381865afa15801561159f573d6000803e3d6000fd5b505050506040513d601f19601f820116820180604052508101906115c39190614ee7565b6115cd9190614d59565b600654604051630f1ebc8760e31b8152600481018390526001600160a01b0391821660248201529192506000917f0000000000000000000000000000000000000000000000000000000000000000909116906378f5e43890604401602060405180830381865afa158015611645573d6000803e3d6000fd5b505050506040513d601f19601f820116820180604052508101906116699190614ee7565b905060008112156116bc5760405162461bcd60e51b815260206004820152601f60248201527f63616e6e6f742064656c74612063757272656e637930206e65676174697665006044820152606401610a70565b60006116c782613e46565b600754604051630f1ebc8760e31b8152600481018690526001600160a01b0391821660248201529192506000917f0000000000000000000000000000000000000000000000000000000000000000909116906378f5e43890604401602060405180830381865afa15801561173f573d6000803e3d6000fd5b505050506040513d601f19601f820116820180604052508101906117639190614ee7565b905060008112156117b65760405162461bcd60e51b815260206004820152601f60248201527f63616e6e6f742064656c74612063757272656e637931206e65676174697665006044820152606401610a70565b60006117c182613e46565b9050821561189b576080870151600654611808916001600160a01b03909116907f000000000000000000000000000000000000000000000000000000000000000086613e98565b600654604051636a256b2960e01b81526001600160a01b0391821660048201527f000000000000000000000000000000000000000000000000000000000000000090911690636a256b29906024016020604051808303816000875af1158015611875573d6000803e3d6000fd5b505050506040513d601f19601f820116820180604052508101906118999190614ee7565b505b80156119735760808701516007546118e0916001600160a01b03909116907f000000000000000000000000000000000000000000000000000000000000000084613e98565b600754604051636a256b2960e01b81526001600160a01b0391821660048201527f000000000000000000000000000000000000000000000000000000000000000090911690636a256b29906024016020604051808303816000875af115801561194d573d6000803e3d6000fd5b505050506040513d601f19601f820116820180604052508101906119719190614ee7565b505b600d9290925550600e55506129b19050565b6040805160a0810182526006546001600160a01b039081168252600754808216602084015262ffffff600160a01b82041693830193909352600160b81b90920460020b6060820152600854821660808201526000917f0000000000000000000000000000000000000000000000000000000000000000169063048d9c7090611a0c90613ac3565b60095460405160e084901b6001600160e01b03191681526004810192909252306024830152600160c81b8104600290810b6044840152600160e01b909104900b6064820152608401606060405180830381865afa158015611a71573d6000803e3d6000fd5b505050506040513d601f19601f82011682018060405250810190611a959190614f00565b80519091506001600160801b031615611bea5760408051606081018252600954600160c81b8104600290810b8352600160e01b909104900b602082015282516001600160a01b037f0000000000000000000000000000000000000000000000000000000000000000169263555a4733926006929091820190611b1f906001600160801b0316613dae565b611b2890614f6e565b9052604080516001600160e01b031960e086901b16815283546001600160a01b0390811660048301526001850154808216602484015260a081901c62ffffff16604484015260b81c600290810b6064840152948501541660848201528251840b60a4820152602083015190930b60c4840152015160e4820152610104016020604051808303816000875af1158015611bc4573d6000803e3d6000fd5b505050506040513d601f19601f82011682018060405250810190611be89190614ee7565b505b6006546000906001600160a01b0316604051627eeac760e11b8152306004820152602481018290529091506000906001600160a01b037f0000000000000000000000000000000000000000000000000000000000000000169062fdd58e90604401602060405180830381865afa158015611c68573d6000803e3d6000fd5b505050506040513d601f19601f82011682018060405250810190611c8c9190614ee7565b90508015611d445760405163f23a6e6160e01b815260006004820181905260248201819052604482018490526064820183905260a0608483015260a48201527f00000000000000000000000000000000000000000000000000000000000000006001600160a01b03169063f23a6e619060c4016020604051808303816000875af1158015611d1e573d6000803e3d6000fd5b505050506040513d601f19601f82011682018060405250810190611d429190614f8a565b505b6007546000906001600160a01b0316604051627eeac760e11b8152306004820152602481018290529091506000906001600160a01b037f0000000000000000000000000000000000000000000000000000000000000000169062fdd58e90604401602060405180830381865afa158015611dc2573d6000803e3d6000fd5b505050506040513d601f19601f82011682018060405250810190611de69190614ee7565b90508015611e9e5760405163f23a6e6160e01b815260006004820181905260248201819052604482018490526064820183905260a0608483015260a48201527f00000000000000000000000000000000000000000000000000000000000000006001600160a01b03169063f23a6e619060c4016020604051808303816000875af1158015611e78573d6000803e3d6000fd5b505050506040513d601f19601f82011682018060405250810190611e9c9190614f8a565b505b600060017f00000000000000000000000000000000000000000000000000000000000000006001600160a01b0316634fb28fbf6040518163ffffffff1660e01b8152600401602060405180830381865afa158015611f00573d6000803e3d6000fd5b505050506040513d601f19601f82011682018060405250810190611f249190614ee7565b611f2e9190614d59565b600654604051630f1ebc8760e31b8152600481018390526001600160a01b0391821660248201529192506000917f0000000000000000000000000000000000000000000000000000000000000000909116906378f5e43890604401602060405180830381865afa158015611fa6573d6000803e3d6000fd5b505050506040513d601f19601f82011682018060405250810190611fca9190614ee7565b9050600081121561201d5760405162461bcd60e51b815260206004820152601f60248201527f63616e6e6f742064656c74612063757272656e637930206e65676174697665006044820152606401610a70565b600061202882613e46565b600754604051630f1ebc8760e31b8152600481018690526001600160a01b0391821660248201529192506000917f0000000000000000000000000000000000000000000000000000000000000000909116906378f5e43890604401602060405180830381865afa1580156120a0573d6000803e3d6000fd5b505050506040513d601f19601f820116820180604052508101906120c49190614ee7565b905060008112156121175760405162461bcd60e51b815260206004820152601f60248201527f63616e6e6f742064656c74612063757272656e637931206e65676174697665006044820152606401610a70565b600061212282613e46565b905060006121358d60200151858e613b4f565b905060006121488e60200151848f613b4f565b905081156122225760808e015160065461218f916001600160a01b03909116907f000000000000000000000000000000000000000000000000000000000000000085613e98565b600654604051636a256b2960e01b81526001600160a01b0391821660048201527f000000000000000000000000000000000000000000000000000000000000000090911690636a256b29906024016020604051808303816000875af11580156121fc573d6000803e3d6000fd5b505050506040513d601f19601f820116820180604052508101906122209190614ee7565b505b80156122fa5760808e0151600754612267916001600160a01b03909116907f000000000000000000000000000000000000000000000000000000000000000084613e98565b600754604051636a256b2960e01b81526001600160a01b0391821660048201527f000000000000000000000000000000000000000000000000000000000000000090911690636a256b29906024016020604051808303816000875af11580156122d4573d6000803e3d6000fd5b505050506040513d601f19601f820116820180604052508101906122f89190614ee7565b505b600d829055600e819055600654604051630f1ebc8760e31b8152600481018990526001600160a01b0391821660248201527f0000000000000000000000000000000000000000000000000000000000000000909116906378f5e43890604401602060405180830381865afa158015612376573d6000803e3d6000fd5b505050506040513d601f19601f8201168201806040525081019061239a9190614ee7565b955060008612156123ed5760405162461bcd60e51b815260206004820152601f60248201527f63616e6e6f742064656c74612063757272656e637930206e65676174697665006044820152606401610a70565b6123f686613e46565b600754604051630f1ebc8760e31b8152600481018a90526001600160a01b0391821660248201529196507f000000000000000000000000000000000000000000000000000000000000000016906378f5e43890604401602060405180830381865afa158015612469573d6000803e3d6000fd5b505050506040513d601f19601f8201168201806040525081019061248d9190614ee7565b935060008412156124e05760405162461bcd60e51b815260206004820152601f60248201527f63616e6e6f742064656c74612063757272656e637931206e65676174697665006044820152606401610a70565b6124e984613e46565b6040805160a0810182526006546001600160a01b0390811682526007548082166020840152600160a01b810462ffffff1693830193909352600160b81b90920460020b6060820152600854821660808201529194506000917f00000000000000000000000000000000000000000000000000000000000000009091169063c815641c9061257590613ac3565b6040518263ffffffff1660e01b815260040161259391815260200190565b60c060405180830381865afa1580156125b0573d6000803e3d6000fd5b505050506040513d601f19601f820116820180604052508101906125d49190614cd2565b505050505090506000612616826125f9600960199054906101000a900460020b613f07565b60095461260f90600160e01b900460020b613f07565b8a89614237565b90506001600160801b0381161561275b5760408051606081018252600954600160c81b8104600290810b8352600160e01b909104900b60208201526001600160a01b037f0000000000000000000000000000000000000000000000000000000000000000169163555a47339160069181016126996001600160801b038716613dae565b9052604080516001600160e01b031960e086901b16815283546001600160a01b0390811660048301526001850154808216602484015260a081901c62ffffff16604484015260b81c600290810b6064840152948501541660848201528251840b60a4820152602083015190930b60c4840152015160e4820152610104016020604051808303816000875af1158015612735573d6000803e3d6000fd5b505050506040513d601f19601f820116820180604052508101906127599190614ee7565b505b604051627eeac760e11b8152306004820152602481018e90526001600160a01b037f0000000000000000000000000000000000000000000000000000000000000000169062fdd58e90604401602060405180830381865afa1580156127c4573d6000803e3d6000fd5b505050506040513d601f19601f820116820180604052508101906127e89190614ee7565b604051627eeac760e11b8152306004820152602481018d9052909c507f00000000000000000000000000000000000000000000000000000000000000006001600160a01b03169062fdd58e90604401602060405180830381865afa158015612854573d6000803e3d6000fd5b505050506040513d601f19601f820116820180604052508101906128789190614ee7565b99508b1561290e57600654604051636361ddf360e11b81526001600160a01b039182166004820152306024820152604481018e90527f00000000000000000000000000000000000000000000000000000000000000009091169063c6c3bbe690606401600060405180830381600087803b1580156128f557600080fd5b505af1158015612909573d6000803e3d6000fd5b505050505b89156129a257600754604051636361ddf360e11b81526001600160a01b039182166004820152306024820152604481018c90527f00000000000000000000000000000000000000000000000000000000000000009091169063c6c3bbe690606401600060405180830381600087803b15801561298957600080fd5b505af115801561299d573d6000803e3d6000fd5b505050505b50505050505050505050505050505b5050565b60006129c060025490565b6040805160a0810182526006546001600160a01b0390811682526007548082166020840152600160a01b810462ffffff1693830193909352600160b81b90920460020b6060820152600854821660808201529192506000917f00000000000000000000000000000000000000000000000000000000000000009091169063048d9c7090612a4c90613ac3565b60095460405160e084901b6001600160e01b03191681526004810192909252306024830152600160c81b8104600290810b6044840152600160e01b909104900b6064820152608401606060405180830381865afa158015612ab1573d6000803e3d6000fd5b505050506040513d601f19601f82011682018060405250810190612ad59190614f00565b80519091506001600160801b031615612c2a5760408051606081018252600954600160c81b8104600290810b8352600160e01b909104900b602082015282516001600160a01b037f0000000000000000000000000000000000000000000000000000000000000000169263555a4733926006929091820190612b5f906001600160801b0316613dae565b612b6890614f6e565b9052604080516001600160e01b031960e086901b16815283546001600160a01b0390811660048301526001850154808216602484015260a081901c62ffffff16604484015260b81c600290810b6064840152948501541660848201528251840b60a4820152602083015190930b60c4840152015160e4820152610104016020604051808303816000875af1158015612c04573d6000803e3d6000fd5b505050506040513d601f19601f82011682018060405250810190612c289190614ee7565b505b6006546000906001600160a01b0316604051627eeac760e11b8152306004820152602481018290529091506000906001600160a01b037f0000000000000000000000000000000000000000000000000000000000000000169062fdd58e90604401602060405180830381865afa158015612ca8573d6000803e3d6000fd5b505050506040513d601f19601f82011682018060405250810190612ccc9190614ee7565b90508015612d845760405163f23a6e6160e01b815260006004820181905260248201819052604482018490526064820183905260a0608483015260a48201527f00000000000000000000000000000000000000000000000000000000000000006001600160a01b03169063f23a6e619060c4016020604051808303816000875af1158015612d5e573d6000803e3d6000fd5b505050506040513d601f19601f82011682018060405250810190612d829190614f8a565b505b6007546000906001600160a01b0316604051627eeac760e11b8152306004820152602481018290529091506000906001600160a01b037f0000000000000000000000000000000000000000000000000000000000000000169062fdd58e90604401602060405180830381865afa158015612e02573d6000803e3d6000fd5b505050506040513d601f19601f82011682018060405250810190612e269190614ee7565b90508015612ede5760405163f23a6e6160e01b815260006004820181905260248201819052604482018490526064820183905260a0608483015260a48201527f00000000000000000000000000000000000000000000000000000000000000006001600160a01b03169063f23a6e619060c4016020604051808303816000875af1158015612eb8573d6000803e3d6000fd5b505050506040513d601f19601f82011682018060405250810190612edc9190614f8a565b505b50505050600060017f00000000000000000000000000000000000000000000000000000000000000006001600160a01b0316634fb28fbf6040518163ffffffff1660e01b8152600401602060405180830381865afa158015612f44573d6000803e3d6000fd5b505050506040513d601f19601f82011682018060405250810190612f689190614ee7565b612f729190614d59565b600654604051630f1ebc8760e31b8152600481018390526001600160a01b0391821660248201529192506000917f0000000000000000000000000000000000000000000000000000000000000000909116906378f5e43890604401602060405180830381865afa158015612fea573d6000803e3d6000fd5b505050506040513d601f19601f8201168201806040525081019061300e9190614ee7565b905060008113156130615760405162461bcd60e51b815260206004820152601f60248201527f63616e6e6f742064656c74612063757272656e63793020706f736974697665006044820152606401610a70565b600061307461306f83614f6e565b613e46565b600754604051630f1ebc8760e31b8152600481018690526001600160a01b0391821660248201529192506000917f0000000000000000000000000000000000000000000000000000000000000000909116906378f5e43890604401602060405180830381865afa1580156130ec573d6000803e3d6000fd5b505050506040513d601f19601f820116820180604052508101906131109190614ee7565b905060008113156131635760405162461bcd60e51b815260206004820152601f60248201527f63616e6e6f742064656c74612063757272656e63793120706f736974697665006044820152606401610a70565b600061317161306f83614f6e565b905060006131848960400151858a613b4f565b905060006131978a60400151848b613b4f565b905081156132345760065460608b0151604051630b0d9c0960e01b81526001600160a01b0392831660048201529082166024820152604481018490527f000000000000000000000000000000000000000000000000000000000000000090911690630b0d9c0990606401600060405180830381600087803b15801561321b57600080fd5b505af115801561322f573d6000803e3d6000fd5b505050505b80156132cf5760075460608b0151604051630b0d9c0960e01b81526001600160a01b0392831660048201529082166024820152604481018390527f000000000000000000000000000000000000000000000000000000000000000090911690630b0d9c0990606401600060405180830381600087803b1580156132b657600080fd5b505af11580156132ca573d6000803e3d6000fd5b505050505b600d91909155600e55600654604051630f1ebc8760e31b8152600481018790526001600160a01b0391821660248201527f0000000000000000000000000000000000000000000000000000000000000000909116906378f5e43890604401602060405180830381865afa15801561334a573d6000803e3d6000fd5b505050506040513d601f19601f8201168201806040525081019061336e9190614ee7565b935060008412156133c15760405162461bcd60e51b815260206004820152601f60248201527f63616e6e6f742064656c74612063757272656e637930206e65676174697665006044820152606401610a70565b6133ca84613e46565b600754604051630f1ebc8760e31b8152600481018890526001600160a01b0391821660248201529194507f000000000000000000000000000000000000000000000000000000000000000016906378f5e43890604401602060405180830381865afa15801561343d573d6000803e3d6000fd5b505050506040513d601f19601f820116820180604052508101906134619190614ee7565b915060008212156134b45760405162461bcd60e51b815260206004820152601f60248201527f63616e6e6f742064656c74612063757272656e637931206e65676174697665006044820152606401610a70565b6134bd82613e46565b6040805160a0810182526006546001600160a01b0390811682526007548082166020840152600160a01b810462ffffff1693830193909352600160b81b90920460020b6060820152600854821660808201529192506000917f00000000000000000000000000000000000000000000000000000000000000009091169063c815641c9061354990613ac3565b6040518263ffffffff1660e01b815260040161356791815260200190565b60c060405180830381865afa158015613584573d6000803e3d6000fd5b505050506040513d601f19601f820116820180604052508101906135a89190614cd2565b5050505050905060006135ea826135cd600960199054906101000a900460020b613f07565b6009546135e390600160e01b900460020b613f07565b8887614237565b90506001600160801b0381161561372f5760408051606081018252600954600160c81b8104600290810b8352600160e01b909104900b60208201526001600160a01b037f0000000000000000000000000000000000000000000000000000000000000000169163555a473391600691810161366d6001600160801b038716613dae565b9052604080516001600160e01b031960e086901b16815283546001600160a01b0390811660048301526001850154808216602484015260a081901c62ffffff16604484015260b81c600290810b6064840152948501541660848201528251840b60a4820152602083015190930b60c4840152015160e4820152610104016020604051808303816000875af1158015613709573d6000803e3d6000fd5b505050506040513d601f19601f8201168201806040525081019061372d9190614ee7565b505b50506006546000906001600160a01b03166007549091506000906001600160a01b0316604051627eeac760e11b8152306004820152602481018490529091506000906001600160a01b037f0000000000000000000000000000000000000000000000000000000000000000169062fdd58e90604401602060405180830381865afa1580156137c1573d6000803e3d6000fd5b505050506040513d601f19601f820116820180604052508101906137e59190614ee7565b604051627eeac760e11b8152306004820152602481018490529091506000906001600160a01b037f0000000000000000000000000000000000000000000000000000000000000000169062fdd58e90604401602060405180830381865afa158015613854573d6000803e3d6000fd5b505050506040513d601f19601f820116820180604052508101906138789190614ee7565b9050811561390e57600654604051636361ddf360e11b81526001600160a01b039182166004820152306024820152604481018490527f00000000000000000000000000000000000000000000000000000000000000009091169063c6c3bbe690606401600060405180830381600087803b1580156138f557600080fd5b505af1158015613909573d6000803e3d6000fd5b505050505b801561399d57600754604051636361ddf360e11b81526001600160a01b039182166004820152306024820152604481018390527f00000000000000000000000000000000000000000000000000000000000000009091169063c6c3bbe690606401600060405180830381600087803b15801561398957600080fd5b505af11580156129a2573d6000803e3d6000fd5b505050505050505050505050565b6002600554036139fd5760405162461bcd60e51b815260206004820152601f60248201527f5265656e7472616e637947756172643a207265656e7472616e742063616c6c006044820152606401610a70565b6002600555565b6001600160a01b038216613a5a5760405162461bcd60e51b815260206004820152601f60248201527f45524332303a206d696e7420746f20746865207a65726f2061646472657373006044820152606401610a70565b8060026000828254613a6c9190614ac3565b90915550506001600160a01b038216600081815260208181526040808320805486019055518481527fddf252ad1be2c89b69c2b068fc378daa952ba7f163c4a11628f55a4df523b3ef910160405180910390a35050565b600081604051602001613b1c919081516001600160a01b03908116825260208084015182169083015260408084015162ffffff169083015260608084015160020b90830152608092830151169181019190915260a00190565b604051602081830303815290604052805190602001209050919050565b60006108396001600160a01b03831680600160601b5b6000808060001985870985870292508281108382030391505080600003613b885760008411613b7d57600080fd5b508290049050610879565b808411613b9457600080fd5b6000848688096000868103871696879004966002600389028118808a02820302808a02820302808a02820302808a02820302808a02820302808a02909103029181900381900460010186841190950394909402919094039290920491909117919091029150509392505050565b600061ffff821115613c7b5760405162461bcd60e51b815260206004820152602660248201527f53616665436173743a2076616c756520646f65736e27742066697420696e203160448201527f36206269747300000000000000000000000000000000000000000000000000006064820152608401610a70565b5090565b6001600160a01b038216613cdf5760405162461bcd60e51b815260206004820152602160248201527f45524332303a206275726e2066726f6d20746865207a65726f206164647265736044820152607360f81b6064820152608401610a70565b6001600160a01b03821660009081526020819052604090205481811015613d535760405162461bcd60e51b815260206004820152602260248201527f45524332303a206275726e20616d6f756e7420657863656564732062616c616e604482015261636560f01b6064820152608401610a70565b6001600160a01b0383166000818152602081815260408083208686039055600280548790039055518581529192917fddf252ad1be2c89b69c2b068fc378daa952ba7f163c4a11628f55a4df523b3ef9101611182565b505050565b60007f7fffffffffffffffffffffffffffffffffffffffffffffffffffffffffffffff821115613c7b5760405162461bcd60e51b815260206004820152602860248201527f53616665436173743a2076616c756520646f65736e27742066697420696e206160448201527f6e20696e743235360000000000000000000000000000000000000000000000006064820152608401610a70565b600080821215613c7b5760405162461bcd60e51b815260206004820181905260248201527f53616665436173743a2076616c7565206d75737420626520706f7369746976656044820152606401610a70565b604080516001600160a01b0385811660248301528416604482015260648082018490528251808303909101815260849091019091526020810180517bffffffffffffffffffffffffffffffffffffffffffffffffffffffff166323b872dd60e01b17905261121b9085906142fb565b60008060008360020b12613f1e578260020b613f26565b8260020b6000035b9050620d89e8811115613f4c576040516333a3bdff60e21b815260040160405180910390fd5b600081600116600003613f7057700100000000000000000000000000000000613f82565b6ffffcb933bd6fad37aa2d162d1a5940015b70ffffffffffffffffffffffffffffffffff1690506002821615613fb6576ffff97272373d413259a46990580e213a0260801c5b6004821615613fd5576ffff2e50f5f656932ef12357cf3c7fdcc0260801c5b6008821615613ff4576fffe5caca7e10e4e61c3624eaa0941cd00260801c5b6010821615614013576fffcb9843d60f6159c9db58835c9266440260801c5b6020821615614032576fff973b41fa98c081472e6896dfb254c00260801c5b6040821615614051576fff2ea16466c96a3843ec78b326b528610260801c5b6080821615614070576ffe5dee046a99a2a811c461f1969c30530260801c5b610100821615614090576ffcbe86c7900a88aedcffc83b479aa3a40260801c5b6102008216156140b0576ff987a7253ac413176f2b074cf7815e540260801c5b6104008216156140d0576ff3392b0822b70005940c7a398e4b70f30260801c5b6108008216156140f0576fe7159475a2c29b7443b29c7fa6e889d90260801c5b611000821615614110576fd097f3bdfd2022b8845ad8f792aa58250260801c5b612000821615614130576fa9f746462d870fdf8a65dc1f90e061e50260801c5b614000821615614150576f70d869a156d2a1b890bb3df62baf32f70260801c5b618000821615614170576f31be135f97d08fd981231505542fcfa60260801c5b62010000821615614191576f09aa508b5b7a84e1c677de54f3e99bc90260801c5b620200008216156141b1576e5d6af8dedb81196699c329225ee6040260801c5b620400008216156141d0576d2216e584f5fa1ea926041bedfe980260801c5b620800008216156141ed576b048a170391f7dc42444e8fa20260801c5b60008460020b131561420e57806000198161420a5761420a614fb4565b0490505b640100000000810615614222576001614225565b60005b60ff16602082901c0192505050919050565b6000836001600160a01b0316856001600160a01b03161115614257579293925b846001600160a01b0316866001600160a01b0316116142825761427b8585856143e3565b90506142f2565b836001600160a01b0316866001600160a01b031610156142e45760006142a98786866143e3565b905060006142b887898661443f565b9050806001600160801b0316826001600160801b0316106142d957806142db565b815b925050506142f2565b6142ef85858461443f565b90505b95945050505050565b6000614350826040518060400160405280602081526020017f5361666545524332303a206c6f772d6c6576656c2063616c6c206661696c6564815250856001600160a01b031661447d9092919063ffffffff16565b90508051600014806143715750808060200190518101906143719190614fca565b613da95760405162461bcd60e51b815260206004820152602a60248201527f5361666545524332303a204552433230206f7065726174696f6e20646964206e60448201527f6f742073756363656564000000000000000000000000000000000000000000006064820152608401610a70565b6000826001600160a01b0316846001600160a01b03161115614403579192915b6000614426856001600160a01b0316856001600160a01b0316600160601b613b4f565b90506142f261443a8483610de18989614fe7565b61448c565b6000826001600160a01b0316846001600160a01b0316111561445f579192915b61447561443a83600160601b610de18888614fe7565b949350505050565b606061447584846000856144a7565b806001600160801b03811681146144a257600080fd5b919050565b60608247101561451f5760405162461bcd60e51b815260206004820152602660248201527f416464726573733a20696e73756666696369656e742062616c616e636520666f60448201527f722063616c6c00000000000000000000000000000000000000000000000000006064820152608401610a70565b600080866001600160a01b0316858760405161453b9190615007565b60006040518083038185875af1925050503d8060008114614578576040519150601f19603f3d011682016040523d82523d6000602084013e61457d565b606091505b509150915061458e87838387614599565b979650505050505050565b60608315614608578251600003614601576001600160a01b0385163b6146015760405162461bcd60e51b815260206004820152601d60248201527f416464726573733a2063616c6c20746f206e6f6e2d636f6e74726163740000006044820152606401610a70565b5081614475565b614475838381511561461d5781518083602001fd5b8060405162461bcd60e51b8152600401610a709190614687565b60005b8381101561465257818101518382015260200161463a565b50506000910152565b60008151808452614673816020860160208601614637565b601f01601f19169290920160200192915050565b602081526000610879602083018461465b565b6001600160a01b03811681146146af57600080fd5b50565b600080604083850312156146c557600080fd5b82356146d08161469a565b946020939093013593505050565b600060a082840312156146f057600080fd5b50919050565b6000606082840312156146f057600080fd5b6000806000610120848603121561471e57600080fd5b83356147298161469a565b925061473885602086016146de565b91506147478560c086016146f6565b90509250925092565b600080600080610140858703121561476757600080fd5b84356147728161469a565b935061478186602087016146de565b92506147908660c087016146f6565b939692955092936101200135925050565b6000806000606084860312156147b657600080fd5b83356147c18161469a565b925060208401356147d18161469a565b929592945050506040919091013590565b6000806000604084860312156147f757600080fd5b83359250602084013567ffffffffffffffff8082111561481657600080fd5b818601915086601f83011261482a57600080fd5b81358181111561483957600080fd5b87602082850101111561484b57600080fd5b6020830194508093505050509250925092565b600080600080610100858703121561487557600080fd5b84356148808161469a565b935061488f86602087016146de565b939693955050505060c08201359160e0013590565b60006101008201905082511515825260208301511515602083015260408301511515604083015260608301511515606083015260808301516148ea608084018215159052565b5060a08301516148fe60a084018215159052565b5060c083015161491260c084018215159052565b5060e083015161492660e084018215159052565b5092915050565b600060a0828403121561493f57600080fd5b61087983836146de565b8060020b81146146af57600080fd5b600080600080610100858703121561496f57600080fd5b843561497a8161469a565b935061498986602087016146de565b925060c08501356149998161469a565b915060e08501356149a981614949565b939692955090935050565b6000602082840312156149c657600080fd5b81356108798161469a565b600080604083850312156149e457600080fd5b8235915060208301356149f68161469a565b809150509250929050565b600080600060e08486031215614a1657600080fd5b8335614a218161469a565b9250614a3085602086016146de565b915060c0840135614a408161469a565b809150509250925092565b60008060408385031215614a5e57600080fd5b8235614a698161469a565b915060208301356149f68161469a565b600181811c90821680614a8d57607f821691505b6020821081036146f057634e487b7160e01b600052602260045260246000fd5b634e487b7160e01b600052601160045260246000fd5b8082018082111561083957610839614aad565b634e487b7160e01b600052604160045260246000fd5b60405160a0810167ffffffffffffffff81118282101715614b0f57614b0f614ad6565b60405290565b60ff811681146146af57600080fd5b600060a08284031215614b3657600080fd5b614b3e614aec565b8235614b4981614b15565b8082525060208301356020820152604083013560408201526060830135614b6f8161469a565b60608201526080830135614b828161469a565b60808201529392505050565b61ffff82811682821603908082111561492657614926614aad565b61ffff81811683821601908082111561492657614926614aad565b600060208284031215614bd657600080fd5b815167ffffffffffffffff80821115614bee57600080fd5b818401915084601f830112614c0257600080fd5b815181811115614c1457614c14614ad6565b604051601f8201601f19908116603f01168101908382118183101715614c3c57614c3c614ad6565b81604052828152876020848701011115614c5557600080fd5b61458e836020830160208801614637565b62ffffff811681146146af57600080fd5b600060a08284031215614c8957600080fd5b614c91614aec565b8235614c9c8161469a565b81526020830135614cac8161469a565b60208201526040830135614cbf81614c66565b60408201526060830135614b6f81614949565b60008060008060008060c08789031215614ceb57600080fd5b8651614cf68161469a565b6020880151909650614d0781614949565b6040880151909550614d1881614b15565b6060880151909450614d2981614b15565b6080880151909350614d3a81614b15565b60a0880151909250614d4b81614b15565b809150509295509295509295565b8181038181111561083957610839614aad565b808202811582820484141761083957610839614aad565b6001600160a01b03828116828216818102831692918115828504821417614dac57614dac614aad565b50505092915050565b80151581146146af57600080fd5b600060208284031215614dd557600080fd5b813561087981614db5565b8135614deb8161469a565b81546001600160a01b0319166001600160a01b03821617825550600181016020830135614e178161469a565b81546001600160a01b0319166001600160a01b038216178255506040830135614e3f81614c66565b81546060850135614e4f81614949565b8060b81b79ffffff00000000000000000000000000000000000000000000001676ffffff00000000000000000000000000000000000000008460a01b167fffffffffffff000000000000ffffffffffffffffffffffffffffffffffffffff841617178455505050506080820135614ec58161469a565b6002820180546001600160a01b0319166001600160a01b038316179055505050565b600060208284031215614ef957600080fd5b5051919050565b600060608284031215614f1257600080fd5b6040516060810181811067ffffffffffffffff82111715614f3557614f35614ad6565b60405282516001600160801b0381168114614f4f57600080fd5b8152602083810151908201526040928301519281019290925250919050565b6000600160ff1b8201614f8357614f83614aad565b5060000390565b600060208284031215614f9c57600080fd5b81516001600160e01b03198116811461087957600080fd5b634e487b7160e01b600052601260045260246000fd5b600060208284031215614fdc57600080fd5b815161087981614db5565b6001600160a01b0382811682821603908082111561492657614926614aad565b60008251615019818460208701614637565b919091019291505056fea2646970667358221220b84d811b4f972719c8396e553e9e6b4306135bd4484319ac58fadef45d027ea564736f6c63430008130033","linkReferences":{}},"methodIdentifiers":{"a0()":"c65f5432","a1()":"119552a1","afterDonate(address,(address,address,uint24,int24,address),uint256,uint256)":"43c4407e","afterInitialize(address,(address,address,uint24,int24,address),uint160,int24)":"6fe7e6eb","afterModifyPosition(address,(address,address,uint24,int24,address),(int24,int24,int256),int256)":"0e2059f5","afterSwap(address,(address,address,uint24,int24,address),(bool,int256,uint160),int256)":"a5aa370a","allocation()":"88a17bde","allowance(address,address)":"dd62ed3e","approve(address,uint256)":"095ea7b3","balanceOf(address)":"70a08231","beforeDonate(address,(address,address,uint24,int24,address),uint256,uint256)":"4dbb99a6","beforeInitialize(address,(address,address,uint24,int24,address),uint160)":"dc98354e","beforeModifyPosition(address,(address,address,uint24,int24,address),(int24,int24,int256))":"0dbe5dbd","beforeSwap(address,(address,address,uint24,int24,address),(bool,int256,uint160))":"b3f97f80","burn(uint256,address)":"fcd3533c","c()":"c3da42b8","decimals()":"313ce567","decreaseAllowance(address,uint256)":"a457c2d7","delta()":"12b495a8","getFee((address,address,uint24,int24,address))":"69516b74","getHooksCalls()":"612c39b7","impactDirection()":"eb9c023a","increaseAllowance(address,uint256)":"39509351","lastBlockNumber()":"2552317c","lastSqrtPriceX96()":"8fc4fd91","lockAcquired(uint256,bytes)":"3c74bf4c","lowerTick()":"9b1344ac","mint(uint256,address)":"94bf804d","name()":"06fdde03","poolKey()":"182148ef","poolManager()":"dc4c90d3","rangeSize()":"6723f355","referenceFee()":"6333ff4e","referenceVolatility()":"7600f265","symbol()":"95d89b41","totalSupply()":"18160ddd","transfer(address,uint256)":"a9059cbb","transferFrom(address,address,uint256)":"23b872dd","ultimateThreshold()":"7136ccef","upperTick()":"727dd228","zeroForOne()":"b25b6bd7"},"id":0}